:020000040800F2
:10000000A8290020718A0008353F0008373F000802
:100010003B3F00083F3F0008433F0008000000004E
:10002000000000000000000000000000473F000842
:10003000493F0008000000004B3F00084D3F00080A
:100040008B8A00088B8A00088B8A00088B8A00083C
:100050008B8A00088B8A00088B8A00088B8A00082C
:10006000773F00088B8A00088B8A00088B8A00087B
:100070008B8A00088B8A00088B8A00088B8A00080C
:100080008B8A00088B8A00088B8A00088B8A0008FC
:10009000593F00088B8A00088B8A00086D3F0008D2
:1000A0008B8A00088B8A00088B8A00088B8A0008DC
:1000B0008B8A00088B8A00088B8A00088B8A0008CC
:1000C0008B8A00088B8A00088B8A00088B8A0008BC
:1000D0008B8A00088B8A00088B8A00088B8A0008AC
:1000E000753F00088B8A0008633F0008DFF80CD0DA
:1000F0000AF0CAFA00480047213B0008A82900205E
:10010000704700B585B000BFFE48806940F004002C
:10011000FC4988610846806900F00400009000BF37
:1001200000BF0020029001200390032004902020B3
:10013000019001A9F44804F0E7FE05B000BD00B548
:1001400093B000BFEF48806940F40060ED498861DA
:100150000846806900F40060019000BF00BF00BF46
:100160000846806940F0080088610846806900F010
:100170000800019000BF00BF0220099000200A90F3
:1001800003200B908815089008A9DF4804F0BCFEF6
:100190004FF40070089008A9DB4804F0B5FE4FF456
:1001A0000050089008A9D94804F0AEFE4FF48040F2
:1001B000089008A9D54804F0A7FED548406820F06B
:1001C000C000D34948600846406820F0E06040F035
:1001D000007048600120099000200A9003200B90D5
:1001E0008815089008A9C94804F08EFEC948CA4974
:1001F00008600120486040F2E731C748C1604FF411
:10020000807101610021816006F0A6FE4FF48050EC
:10021000049004A9C04807F066FABF4806F02AFF18
:1002200010B1002013B000BD00200290039002A97D
:10023000B94807F0D4FB00200C900D904FF480706B
:100240000E9014200F90002010904FF40050119049
:10025000400012900CA9B04807F099FB6020AF490C
:10026000086000208860C860086148618861486053
:100270000022A94807F023F90422A849A64807F05C
:100280001EF90021A44806F00FFF0021A24807F044
:100290005DFB0421A04806F007FF04219E4807F0FB
:1002A00055FB0120BEE770B504460D46F5B10022AE
:1002B0000421984806F0ABFE50220421954807F02F
:1002C0008CF904221146934807F024FB6022002198
:1002D000904807F082F9012200218E4806F097FE2F
:1002E000002211468B4807F015FB1DE00022114645
:1002F000884806F08CFE50220021864807F06DF9F0
:1003000004220021834807F005FB60220421814874
:1003100007F063F9012204217E4806F078FE0022EE
:1003200004217C4807F0F6FA7A4834300460001D56
:10033000046070BD10B50446052C2FD2DFE804F030
:100340000A1703111D0000224FF480616F4804F06A
:1003500061FF33E000224FF400616C4804F05AFF63
:100360002CE001229102694804F054FF26E00122AA
:10037000D102664804F04EFF20E00122910263485A
:1003800004F048FF0122D102604804F043FF00223C
:100390004FF400715D4804F03DFF0FE0012291022F
:1003A0005A4804F037FF0122D102584804F032FFC6
:1003B00001225102554804F02DFF00BF00BF10BDBF
:1003C00000B585B000BF4F48806940F008004D4936
:1003D00088610846806900F00800009000BF00BFF7
:1003E0000120029000200390022004904FF46060EE
:1003F000019001A9454804F087FD4FF0FF30FFF759
:1004000099FF012005B000BD70B500260025444CC1
:1004100010222146434809F067FC10342922214666
:10042000414809F061FC29341C2221463F4809F06B
:100430005BFC1C343E4821680160241D38222146A3
:100440003C4809F051FC383410223649002003F0B2
:1004500071F9C5B229223449284603F06BF9C5B2B7
:100460001C223249284603F065F9C5B204223049FE
:10047000284603F05FF9C5B238222E49284603F01A
:1004800059F9C5B22078A8420ED100202649C1F8FA
:1004900022000021244A116051602548407820B98B
:1004A00001202349C87000E00126304670BD10B518
:1004B00088B004460220009080030290684606F04F
:1004C0005FFC01200490032005900020069004A901
:1004D0000E4804F019FD80200490032005900020B0
:1004E000069004A9084804F00FFD10200490032092
:1004F00005900020069004A9034804F005FD0E486D
:100500000E491DE00010024000080140000C0140AF
:1005100000000140002C0140B804002030050020FC
:100520000090010898090020D1090020230A00202A
:10053000FC0200203F0A002008000240A405002021
:100540000860002048600021F64881608021C16079
:10055000490001618900416120218161C901C161B6
:1005600004F014F9EF4804F0E7F800BFED486062CA
:10057000446200BF08B010BD70471FB500BFEA4815
:10058000806940F40070E84988610846806900F499
:100590000070009000BF00BF00BF0846806940F0B7
:1005A000040088610846806900F00400009000BFE4
:1005B00000BF00BF0846806940F01000886108460F
:1005C000806900F01000009000BF00BF00BF084627
:1005D000406940F0010048610846406900F00100B0
:1005E000009000BF00BFD148D14908608115D048B4
:1005F00081600021C160416181614FF46021C1616E
:100600000020CB4948601021C948016103F095FDE5
:1006100008B1FFF7B1FF07200190012003900124EA
:1006200008E0029401A9C24803F0F9FE08B1FFF7FF
:10063000A3FF641C052CF4DD04200190002003902E
:10064000062408E0029401A9B94803F0E8FE08B1C5
:10065000FFF792FF641C0A2CF4DD082001900B24A4
:1006600008E0029401A9B24803F0D9FE08B1FFF7EF
:1006700083FF641C0F2CF4DD10200190029001A96F
:10068000AB4803F0CCFE08B1FFF776FF1022A94972
:10069000A74803F04DFE1FBD2DE9FE4FA548C08AB7
:1006A000A449098B0844A349498B0844032190FBC2
:1006B000F1F000B20290A048007870B901209E4984
:1006C0000870029809F084FD9C4908609949C88B1C
:1006D00009F087FD9A49086042E0029809F078FD28
:1006E000009096480168009809F074FB019009F0A9
:1006F00039FE8246934A944B09F089FC06460F4620
:100700008E48006809F02EFE804632463B4609F0CE
:10071000D7FB044609F06AFE884908608549C88B02
:1007200009F05FFD009086480168009809F052FBCF
:10073000019009F017FE8046824A834B09F067FC5E
:1007400004460D467E48006809F00CFE0646224627
:100750002B4609F0B5FB824609F048FE784908604F
:100760007648006809F0FEFD8046784A784B09F02B
:100770004EFC06460022774B09F0A2FB044609F026
:10078000B3FD754981F827006D48006809F079FDCF
:10079000C0B2714981F82800BDE8FE8F10B5102263
:1007A0006449634803F0C4FD10BD70B502460020E3
:1007B0000123002419E00023002013E032F8106028
:1007C000451C32F81550AE420ADD32F81040451C87
:1007D00032F8155022F81050451C22F8154001231C
:1007E000451CE8B24D1E8542E8DC012BE3D070BD0C
:1007F0002DE9FE4F4F4880884E49C98808444D492D
:1008000009890844032190FBF1F080B2029002981C
:1008100009F0E7FC009051480168009809F0DAFA05
:10082000019009F09FFD80464D4A4E4B09F0EFFBC9
:1008300004460D464948006809F094FD06462246E4
:100840002B4609F03DFB824609F0D0FD4349086084
:1008500008460068BDE8FE8F10B53F4890F82600B6
:1008600018B10320FFF766FD10BD3F48407800280F
:1008700043D13E480078012814D13D480078012832
:1008800010D03C48007801280CD0334890F826005E
:1008900040B90120364908703649087000203349B4
:1008A00008700AE02C4890F8260018B90220FFF7DB
:1008B00041FD02E00320FFF73DFD2D48007810B90F
:1008C0002C48007860B32C4908880988491C2A4ABA
:1008D000118000EBD0714910A0EB410131B9022029
:1008E000FFF728FD00202249087056E00320FFF79B
:1008F00021FD00201F4908704FE01B48C0780228E6
:1009000040D11D4908880988491C1B4A118000EB09
:10091000D0714910A0EB410119B90220FFF70AFD7F
:100920003BE02BE0A4050020001002400024014021
:10093000740500204C0500200C0000201000002051
:1009400014000020FCA9F1D24D62403FD21BEE23DF
:10095000B7268D3F0000F03FA809002018000020B6
:100960007B14AE47E17A843FFC02002002000020A5
:100970001E0000201F0000201C0000200320FFF7A5
:10098000D9FC0AE0AA4890F8260018B90220FFF71F
:10099000D1FC02E00320FFF7CDFC00BF64E710B5F7
:1009A000A34890F82600082854D006DC012809D076
:1009B00002281FD0042875D134E0102862D02028E6
:1009C000F9D178E09B48006802280FDA9949086855
:1009D00000EBD0714910A0EB410119B90020FFF7DD
:1009E000A9FC06E00120FFF7A5FC02E00120FFF7CB
:1009F000A1FC79E08F48006804280FDA8D49086867
:100A000000EBD0714910A0EB410119B90020FFF7AC
:100A100091FC06E00120FFF78DFC02E00120FFF7CA
:100A200089FC61E08348006806280FDA814908687C
:100A300000EBD0714910A0EB410119B90020FFF77C
:100A400079FC06E00120FFF775FC02E00120FFF7CA
:100A500071FC49E07748006808280FDA7549086892
:100A600000EBD0714910A0EB410119B90020FFF74C
:100A700061FC06E00120FFF75DFC02E00120FFF7CA
:100A800059FC31E06B4800680A2810DA69490868A7
:100A900000EBD0714910A0EB410121B90020FFF714
:100AA00049FC07E01FE00120FFF744FC02E00120C1
:100AB000FFF740FC18E05F4800680C280FDA5D493A
:100AC000086800EBD0714910A0EB410119B9002072
:100AD000FFF730FC06E00120FFF72CFC02E00120CC
:100AE000FFF728FC00E000BF00BF52480168006823
:100AF000401C504A1060504890F90000814202DDCD
:100B000000201146086010BD2DE9F04F87B0052187
:100B10004A48FFF74AFE49480A38808947490A3956
:100B2000C989084445490A39098A0844032190FBC8
:100B3000F1F080B206904248008840B90120404957
:100B40000880069809F04DFB3E49086020E00698B1
:100B500009F047FB04903B480168049809F03AF912
:100B6000059009F0FFFB8246374A384B09F04FFAEF
:100B700006460F463348006809F0F4FB80463246CB
:100B80003B4609F09DF9044609F030FC2D49086008
:100B90002C48006809F0E6FB064600222C4B09F0C1
:100BA000A8FA2C4A2C4BCDE9000109F030FA0022BA
:100BB0002A4BCDE9020109F09CFA0446284A294B48
:100BC00009F097FA80460022274B09F020FA824666
:100BD0000022264B09F015FACDE9040109F065FB66
:100BE00000B2134908840846B0F920002049498919
:100BF000884216DD1F480088401C1E4908800846B0
:100C00000088322811DD00200880094890F826006D
:100C100040F01000064981F82600012007B0BDE829
:100C2000F08F002013490880F8E700BFF6E70000C6
:100C3000A8090020200000202400002056050020E4
:100C4000280000202C0000207B14AE47E17A943F5E
:100C50000000B0401B2FDD2406810A400000304018
:100C60009A9999999999B93F00408F40000069403D
:100C7000980900202600002010B5044600212046D7
:100C800009F0D0FB04D2FE49204609F0A9F810BDB6
:100C90002046FCE770B504460D4600221346204668
:100CA000294609F073FB06D20022F64B204629465E
:100CB00009F0ADF970BD20462946FBE72DE9F04F5C
:100CC00089B0F148C07801287ED10220EE49C87071
:100CD000EE488268C1681046FFF7DCFFEC4A03C2A9
:100CE0000020EC490870E94801684068E74A9161D2
:100CF000D061E9488668C368D0F80880C168324688
:100D0000404609F084F98246E34806694369324661
:100D1000504609F0EEF9CDE90601DC480668436863
:100D2000DD49D1F8008049683246404609F069F94A
:100D30008246FFF7AFFFCDE90401DDE9062309F0A4
:100D400060F904460D46002213462046294609F064
:100D500035FB25D2D0488668C368324620462946EE
:100D600009F0C7F9CDE90401CB4806694369D0F819
:100D70000880C1683246404609F0BBF9CDE902015E
:100D8000DDE9042309F09CF88246C44AC44B09F00B
:100D9000B0F9CDE9060109F0A7FAC249086028E0D8
:100DA000BA4806684368BC49D1F8008049683246B1
:100DB000404609F026F98246FFF76CFFCDE90001B5
:100DC000B5480669436900E014E03246009809F02E
:100DD00090F9CDE902010AF09DFEB04AB04BCDE991
:100DE000040109F086F9CDE9060109F07DFAAD4963
:100DF000086000BFA5498C69CB69A74806684168AF
:100E00002246304609F0C2FA76D09F484078002842
:100E1000FAD0A448006818B39F48066941699F4A00
:100E20009F4B304609F0F3F8044699480CC8204619
:100E300009F046F8964A03C297498C68CB68224667
:100E4000934903C909F0BAFA04D293498868C9687A
:100E50008F4A03C293480068401E924908601BE015
:100E60008D490E6949698D4A8D4B304609F0CFF89E
:100E7000044687480CC8204609F0C6F8844A03C2D5
:100E80000022894B824903C909F080FA04D200216B
:100E900085487F4AC2E90010804A814B7C4903C9DA
:100EA00009F0B5F8814A03C278490C684B687A4961
:100EB0000E6849682246304609F080FA1DD273490F
:100EC0008C69C96979480CC8204608F0F9FF6F4A57
:100ED0009061D16170490C684B6810468669C169A0
:100EE0002246304609F06AFA5AD26B4908684968C6
:100EF000664A9061D16153E027E064490C684B6811
:100F00006548066841682246304609F03FFA47D2F4
:100F10005E488469C16965480CC8204609F071F8CB
:100F20005A4A9061D1615C490C684B6810468669E9
:100F3000C1692246304609F029FA31D2564908687B
:100F40004968524A9061D1612AE050498C69CB6965
:100F50005148066841682246304609F017FA06D122
:100F60004948407818B103204749C87018E05049F3
:100F7000D1F8030009F04BF904460D464D490868C5
:100F8000496809F051F906464B4A4C4B09F03FF8C5
:100F9000804622462B4609F0ACF83C4A9061D1616C
:100FA0003A48046843688669C1692246304609F0B8
:100FB00028F8804609F01AFA4149086000214048A3
:100FC000006809F039FA03D201203E49087009E0AF
:100FD00000213B48006809F025FA03D20020394976
:100FE000087000BF384908683549096808F0F8FEFC
:100FF000364908603449486809F0B4F980468946A2
:1010000022498E68CB683246494609F000F804460A
:1010100009F0ECF92E4908602E492D48006809F0C6
:1010200001FA03D22B482A49086008E02A492848D7
:10103000006809F001FA02D22748254908602448CF
:1010400001682248006808F0C5FE0546FFF714FE57
:10105000044609F0FDF800B2204908800846B0F9BE
:101060000000B0F57A7F02DD4FF47A7008801B49EA
:10107000098888B213490978FFF715F909B02FE0FC
:10108000000080BF0000F0BFFC020020A809002083
:101090008800002084000020D1090020FCA9F1D2A2
:1010A0004D62503F900000200000F03F48000020BB
:1010B00098090020D802002044174154FB21194010
:1010C0005000002064000020230A00206800002057
:1010D0006C00002000C079C400C079447400002076
:1010E000BDE8F08F2DE9FC5FFE48C078012815D1DE
:1010F0000220FC49C870FC48026941691046FFF7AC
:10110000C9FD0446F94AFA4B08F081FFF94A03C2C7
:10111000F9498868C968F84A9061D161F148407816
:10112000032851D1FFF764FB8246F449504609F089
:1011300079F901D24FF0000A2021F14804F062F859
:10114000B0B1504609F00EF980460022ED4B08F090
:10115000D0FF04460D46EC49886809F003F90646BD
:1011600022462B4608F053FFDF4A9060D16019E019
:10117000504609F0F7F880460022E24B08F0B9FF2C
:1011800004460D46E0488168E04808F029FE8046A4
:1011900009F0E8F8064622462B4608F038FFD24A06
:1011A0009060D160D0488268C1681046FFF772FD38
:1011B000044600224FF0804309F0E8F805D20021F0
:1011C000C94A9160D16000E000BFC7498E68CB6812
:1011D000C9488469C1693246204609F0D7F81FD250
:1011E000C5498C69C969C3480CC8204608F068FE27
:1011F000C14A9061D161BC488668C3681046846961
:10120000C1693246204609F0D9F833D2B649886818
:10121000C968B94A9061D1610320B249C87029E018
:10122000B1498E68CB68B4488469C16932462046AA
:1012300009F0C4F81ED2B0498C69C969AD480CC820
:10124000204608F0DEFEAC4A9061D161A64886686F
:10125000C36810468469C1693246204609F096F891
:1012600008D2A1498868C968A34A9061D161032066
:101270009C49C870A0498C68CB6808468669C169DA
:101280002246304608F0BDFE804609F0AFF8A0497E
:1012900008609D4908689E49096808F0A1FD9D49BC
:1012A0000860994948689A49096808F099FD834699
:1012B00009F058F880468D4A8D4B08F0A8FE044688
:1012C0000D469548006809F04DF8064622462B4623
:1012D00008F0F6FDCDE9000109F088F88E490860B4
:1012E0008E498D48006809F0A7F803D28B488A49D7
:1012F000086008E08A498848006809F093F802D23B
:10130000874885490860844801688248006808F079
:101310000FFD8449086008460068FFF7ADFC0446ED
:101320007E4909F089F80CD200217E48006809F056
:1013300083F803D279487B49086002E0784879490C
:10134000086000217748006809F076F809D27548EE
:10135000006808F096FF84B201212046FEF7A3FF43
:101360000EE000216F48006809F05CF808D86D486D
:10137000006808F086FF84B200212046FEF793FF44
:10138000BDE8FC9F2DE9F04F89B05648C078012890
:101390007ED102205349C87057488268C168104600
:1013A000FFF778FC604A03C2002060490870524889
:1013B00001684068504A9161D0614B488668C368B3
:1013C0000146D1F80880C9683246404608F01FFE41
:1013D00082464548066943693246504608F089FE10
:1013E000CDE906014448066843683F49D1F80080CA
:1013F00049683246404608F004FE8246FFF74AFC40
:10140000CDE90401DDE9062308F0FBFD04460D46A5
:10141000002213462046294608F0D0FF26D2324843
:101420008668C36832462046294608F062FE824636
:101430008B462D4806694369D0F80880C16832465A
:10144000404608F056FE52465B46CDE9020108F0E0
:1014500037FD264A264BCDE9040108F04AFECDE9C6
:10146000060108F041FF3249086028E0224806687A
:1014700043681D48D0F8008041683246404608F075
:10148000C0FD8246FFF706FCCDE90001164900E0E9
:1014900016E00E694B693246019908F02AFECDE943
:1014A00002010AF037FB114A114BCDE9040108F0A3
:1014B00020FECDE9060108F017FF1D49086000BFB6
:1014C0000D488469C3690848066841682246304669
:1014D00008F05CFF7ED0034840780028FAD014481A
:1014E000006827E0FC020020D1090020FCA9F1D20D
:1014F0004D62503F48000020A80900200000204114
:10150000000C01400000B040230A0020000080BF12
:101510005C000020AC000020B000002000C0794436
:1015200000C079C4BC000020C8000020C400002016
:10153000D000002020B3FE4806694169FD4AFE4BF9
:10154000304608F064FD0446FC480CC8204608F00C
:10155000B7FCFA4A03C2F6488468C3682246F749D2
:1015600003C908F02BFF05D2F1488168C068F34A2F
:10157000C2E90010F2480068401EF14908601BE013
:10158000EB4806694169EB4AEB4B304608F03FFDFA
:101590000446EA480CC8204608F036FDE74A03C274
:1015A0000022E84BE54903C908F0F0FE04D200210F
:1015B000E448E24AC2E90010DE4ADF4BDF4903C9D2
:1015C00008F025FDE04A03C2E0490C684B68D848A2
:1015D000066800E04AE041682246304608F0EEFE28
:1015E0001CD8DA488469C169D7480CC8204608F07D
:1015F00067FCD64A9061D161CD48046843681146C2
:101600008E69C9692246304608F0D8FE59D2C849C9
:1016100008684968CD4A9061D16152E0CB480468BE
:101620004368C3490E6849682246304608F0AEFE5A
:1016300047D8C6488469C169C3480CC8204608F029
:10164000E0FCC24A9061D161B94804684368104621
:101650008669C1692246304608F098FE31D2B44806
:1016600001684068B94A9161D0612AE0B74884694D
:10167000C369AF48066841682246304608F086FED6
:1016800006D1B348407818B10320B149C87018E0BA
:10169000B049D1F8030008F0BAFD80468946AE494A
:1016A0000868496808F0C0FD0646AC4AAC4B08F033
:1016B000AEFC044642464B4608F01BFDA34A90612F
:1016C000D161A8480068A8490860A048D0F8008007
:1016D000436801468E69C9694246304608F091FC6C
:1016E000044608F083FE9F49086000219D48006879
:1016F00008F0A2FE03D201209C49087009E00021F5
:101700009848006808F08EFE03D2002097490870C0
:1017100000BF974908689349096808F061FB95493B
:101720000860934948688F49096808F059FB079099
:1017300008F018FE80467F4A7F4B08F068FC04469C
:101740000D468D48006808F00DFE064622462B46E1
:1017500008F0B6FB824608F049FE874908608248D7
:1017600001688048006808F035FB81468048816840
:10177000484608F035FB044608F0F4FD07466D4A7C
:101780006D4B08F0B6FC054608F030FE7B4908605A
:1017900079480068FFF770FA0446794908F04CFE72
:1017A0000CD200217448006808F03CFE03D2754852
:1017B0007149086002E072486F4908606E4801682C
:1017C0006C48006808F0B4FA05466C480168284681
:1017D00008F0AEFA044608F03BFD00B26A49088002
:1017E0000846B0F9000008F0F3FC0546FFF744FA9C
:1017F0000446634908F020FE0ED26348B0F90000A9
:10180000B0F57A7F04DB40F2E7305F49088003E0FF
:101810004FF619405C4908805B48B0F90000002889
:1018200010DD5948B0F9000008F0D2FC0646FFF779
:1018300023FA054608F025FD84B201212046FEF773
:1018400032FD0FE05048B0F9000008F0C1FC064638
:10185000FFF712FA054608F014FD84B20021204675
:10186000FEF721FD09B0BDE8F08F2DE9F04F89B0FA
:101870003748C078012859D102203549C87033480B
:101880008268C1681046FFF705FA404A03C200208B
:101890003F4908702D49086849682C4A9061D16118
:1018A00023488668C3680146D1F80880C968324673
:1018B000404608F0ACFB82461D4806694369324643
:1018C000504608F016FCCDE906012048066843683A
:1018D0001749D1F8008049683246404608F091FB2C
:1018E0008246FFF7D7F9CDE90401DDE9062308F0C8
:1018F00088FB04460D46002213462046294608F080
:101900005DFD5BD20A488668C36832462046294698
:1019100008F0EFFBCDE9040105480669436901467B
:10192000D1F80880C9683246404633E06EE00000D6
:10193000D1090020FCA9F1D24D62503FC80000201F
:10194000D00000200000F03F48000020A80900203F
:10195000FC02002098090020D802002044174154BE
:10196000FB2119405000002054000020640000209A
:10197000230A0020680000206C0000207000002076
:1019800000C0794400C079C474000020E000002049
:10199000DC00002008F0ADFBCDE90201DDE9042305
:1019A00008F08EFA8246F84AF84B08F0A2FBCDE91F
:1019B000060108F099FCF649086026E0F54806683B
:1019C0004368F548D0F8008041683246404608F048
:1019D00018FB8246FFF75EF9CDE90001EE48066983
:1019E00043693246009808F084FBCDE902010AF011
:1019F00091F8E54AE54BCDE9040108F07AFBCDE921
:101A0000060108F071FCE249086000BFE1498C69F9
:101A1000CB69E148066841682246304608F0B6FCCA
:101A200076D0DE4840780028FAD0D948006818B34C
:101A3000D9490E694969D44AD44B304608F0E7FACF
:101A40000446D7480CC8204608F03AFAD44A03C2E4
:101A5000D1498C68CB682246D14903C908F0AEFC55
:101A600004D2CD498868C968CD4A03C2C848006815
:101A7000401EC74908601BE0C7490E694969C24A50
:101A8000C24B304608F0C3FA0446C5480CC820468D
:101A900008F0BAFAC24A03C20022C24BC04903C9C5
:101AA00008F074FC04D20021BE48BD4AC2E900100F
:101AB000B54AB64BBA4903C908F0A9FABA4A03C2F3
:101AC000B44804684368B448066841682246304612
:101AD00008F074FC1DD8AF488469C169B2480CC8CD
:101AE000204608F0EDF9AB4A9061D161AA490C6833
:101AF0004B6811468E69C9692246304608F05EFC83
:101B00005AD2A54908684968A24A9061D16153E058
:101B100027E0A0490C684B689F490E684968224637
:101B2000304608F033FC47D89A498C69C9699E4809
:101B30000CC8204608F065FA964A9061D161964833
:101B40000468436810468669C1692246304608F039
:101B50001DFC31D29049086849688E4A9061D16174
:101B60002AE08C498C69CB698B480668416822461B
:101B7000304608F00BFC06D18848407818B10320A5
:101B80008649C87018E08949D1F8030008F03FFB86
:101B900004460D4686490868496808F045FB8046BA
:101BA000844A854B08F033FA064622462B4608F055
:101BB000A0FA784A9061D161804800688049086045
:101BC0007448066843680146D1F81880C9693246EE
:101BD000404608F016FA044608F008FC7749086009
:101BE0007849C86A7549096808F0FAF876490860C2
:101BF000734801687148006808F0ECF88146714844
:101C0000416B484608F0ECF8044608F0ABFB074689
:101C10005D4A5E4B08F06DFA054608F0E7FB6B493C
:101C20000860084601686848006808F081F868495B
:101C300008600846006808F095FB04460022654BE2
:101C400008F0BCFB03D26448614908600CE06048BE
:101C5000006808F087FB04460022604B08F096FB02
:101C600002D25F485A4908605948006808F07AFB78
:101C700004460D4647498E68CB683246294608F02F
:101C8000C0F9804608F0B2FB564908604D49086A21
:101C90005449096808F0A4F8534908604949486A5A
:101CA0005049096808F09CF8079008F05BFB06466D
:101CB000354A364B08F0ABF904460D464B480068F0
:101CC00008F050FB804622462B4608F0F9F8824681
:101CD00008F08CFB4549086045494448006808F015
:101CE000ABFB03D242484149086008E041493F4804
:101CF000006808F097FB02D23E483C4908603B4828
:101D000001683948006808F013F83B490860084644
:101D10000068FEF7B1FF0446354908F08DFB0CD290
:101D200000213548006808F087FB03D2304832496B
:101D3000086002E02F483049086000212E48006802
:101D400008F07AFB09D22C48006808F09AFA84B2AD
:101D500001212046FEF7A7FA12E00021264800687C
:101D600008F060FB0CD824480168244808F038F8D3
:101D7000054608F086FA84B200212046FEF793FA61
:101D800009B0BDE8F08F0000FCA9F1D24D62503FD0
:101D9000E8000020A8090020D1090020FC02002052
:101DA000E00000200000F03F4800002098090020DB
:101DB000D802002044174154FB2119405000002054
:101DC000540000203F0A0020EC000020F400002016
:101DD0000C01002000408F4000007A4400408FC07A
:101DE00000007AC418010020F8000020FC00002048
:101DF00000C0794400C079C410010020000080BFF9
:101E00002DE9F04104460F46002514E06E1C0FE05A
:101E100054F8261054F8250008F004FB07D254F8B3
:101E2000258054F8260044F8250044F82680761CC6
:101E3000BE42EDD36D1C781EA842E7D80020BDE855
:101E4000F08170B502460C46002113E04B1C0EE0F9
:101E500052F8210052F82360B04207D252F82150C4
:101E600052F8230042F8210042F823505B1CA342A1
:101E7000EED3491C601E8842E8D8002070BD10B522
:101E800004460021204608F0D7FA01D2204610BDB2
:101E900084F00040FBE72DE9FF4F93B083461746DF
:101EA0009846209C5946149807F0CCFF1490594648
:101EB000384607F0C7FF07465946404607F0C2FFBD
:101EC00080461499084607F08BFF39460E90F94872
:101ED00007F086FF0D900E9907F07CFFF6490F90F2
:101EE00007F0B0FF81461499084607F079FF4FF0DC
:101EF00080410A9007F074FF39460C90EE4807F0D5
:101F00006FFF0B900C9907F065FF0D90149907F087
:101F100067FF41460F90E94807F062FF80F00040FC
:101F20000E900F9907F004FF8246E549504607F0EE
:101F300089FF82465146504607F052FF49460F90AE
:101F4000484607F04DFF49460D9007F049FF0E90B7
:101F50000F9907F0EDFE1190D649149807F072FF23
:101F600005460021119808F067FA03D2012017B046
:101F7000BDE8F08F0021119808F054FA36D1002105
:101F8000504608F04FFA0DD28AF000400B9008F04E
:101F9000E9F900221346CDE90C0109F0CFF881F0F0
:101FA000004108E0504608F0DDF900221346CDE973
:101FB0000C0109F0C3F8CDE90E0108F017FA064646
:101FC00031464FF0804007F00BFF0F9085F0004046
:101FD0000E900F9907F0ACFE20602946304607F0BE
:101FE000A7FE80F000406060A060C0E089F000497A
:101FF0004946484607F0F4FE49460F9007F0F0FEC8
:102000001090109808F0AEF9CDE9060109F082FDB4
:10201000CDE90A01504608F0A5F9CDE90801DDE94E
:102020000A2308F066F8CDE90C0108F0C5FECDE9F9
:102030000E0108F0DBF91090484608F093F9CDE95D
:102040000A0109F067FD00224FF08043CDE90C0141
:1020500007F0DDFFCDE90E0108F0C8F90646954905
:10206000109807F0EFFE039008F07CF9CDE9040129
:1020700008F0E0FFCDE90801304608F073F9CDE93A
:102080000601DDE9082307F0C2FFCDE90C0185F068
:102090000040099008F066F9CDE90A01DDE90C235A
:1020A00007F00EFFCDE90E0108F0A0F920601098AE
:1020B00008F058F9834A844BCDE9000107F000FF8E
:1020C0000022824BCDE9020108F013F8CDE90401AA
:1020D00008F0B0FFCDE90801304608F043F9CDE93A
:1020E0000601DDE9082307F092FFCDE90C0185F038
:1020F0000040099008F036F9CDE90A01DDE90C232A
:1021000007F0DEFECDE90E0108F070F9606010986E
:1021100008F028F96B4A6E4BCDE9000107F0D0FEBC
:1021200000226A4BCDE9020107F0E3FFCDE904018B
:1021300008F080FFCDE90801304608F013F9CDE939
:102140000601DDE9082307F062FFCDE90C0185F007
:102150000040099008F006F9CDE90A01DDE90C23F9
:1021600007F0AEFECDE90E0108F040F9A0600020B6
:10217000FDE60FB5ADF2045DADF5805D00200DF517
:102180008051C1F8F80400210DF58050C0F8F41416
:10219000C0F8F014C0F8E814C0F8EC14C0F8DC146F
:1021A000C0F8E014C0F8E4144A49C0F8D81400207C
:1021B0000DF58051C1F8D0044FF4487141F29810E8
:1021C000684407F0AAFD4FF448710DF6786007F0F7
:1021D000A4FD4FF496610DF6C81007F09EFD4FF474
:1021E00096610DF5A36007F098FD4FF496611AA86B
:1021F00007F093FD48E00DF58050D0F8D004411D64
:102200000DF58050C0F8D014D0F8D814084607F067
:10221000E7FD4FF07E510C9007F0DCFD0D9008F0CB
:10222000A1F8CDE90E0109F075FC0DF58052CDE95C
:102230001201D2F8D00407F0EAFFCDE91001DDE980
:10224000122307F0E4FECDE916010DF58051D1F817
:10225000D00407F0C6FF12900DF58050D0F8D814C6
:10226000129807F0BDFD139008F07CF8CDE9140139
:10227000DDE9162307F024FECDE9180108F0B6F8D1
:102280000DF58051C1F8F0040DF58050D0F82015FF
:10229000D0F8F00408F0C6F8ADD90DF58051D1F8AA
:1022A000D004C1F8CC040020C1F800050520C1F815
:1022B000D00479E100004040000010410000D84106
:1022C000000058426E861BF0F921194000000840BA
:1022D000F92129409A99D93FE1E00DF58052D2F8D1
:1022E000D80408F03FF8FE4AFE4BCDE9160107F08E
:1022F000E7FDCDE9180108F079F80DF58051C1F836
:10230000D804D1F8D00407F06CFF4FF0804116904C
:102310000DF58050D0F8040507F062FD14900DF51E
:102320008050D0F8D814149807F05AFD15901699DB
:1023300007F056FD17900DF58050D0F80815179846
:1023400007F048FD0DF580511990D1F8D00407F041
:1023500048FF0DF580511790D1F8D00407F041FFE8
:1023600015900DF58050D0F80415159807F038FD3C
:102370001690179907F034FD1890199907F062FD2F
:1023800001460DF58050C0F8F814D0F8D81408466E
:1023900007F026FD4FF07E510C9007F01BFD0D90CD
:1023A00007F0E0FFCDE90E0109F0B4FB0DF5805216
:1023B000CDE91201D2F8D00407F029FFCDE91001D0
:1023C000DDE9122307F023FECDE916010DF580515A
:1023D000D1F8D00407F005FF12900DF58050D0F829
:1023E000D814129807F0FCFC139007F0BBFFCDE95E
:1023F0001401DDE9162307F004FECDE9180107F00A
:10240000F5FF01460DF58050C0F8F414D0F8D8144B
:10241000084607F0E5FC4FF07E510C9007F0DAFC1F
:102420000D9007F09FFFCDE90E0109F073FB0DF54C
:102430008052CDE91201D2F8D00407F0E8FECDE9D0
:102440001001DDE9122307F0E2FDCDE916010DF5DB
:102450008051D1F8D00407F0C4FE12900DF58050E1
:10246000D0F8D814129807F0BBFC139007F07AFF4D
:10247000CDE91401DDE9162307F022FDCDE91801AD
:1024800007F0B4FF0DF58051C1F8F00496490DF541
:102490008050D0F8D80407F0CFFF00D848E00DF501
:1024A0008052D2F8F80407F05DFF00228F4BCDE98F
:1024B000140107F005FD0DF58052CDE91801D2F8A1
:1024C000F40407F04FFFCDE91601DDE9182307F00A
:1024D00075FFFFF402AF0DF5805000F2F44003C821
:1024E00007F0A0FF7FF6F9AE0DF58052D2F8200577
:1024F00007F038FF7E4A7F4BCDE9140107F087FDD6
:102500000DF58052CDE91801D2F8F00407F02AFF4A
:10251000CDE91601DDE9182307F038FFD9D30DF511
:102520008050D0F82015D0F8F00407F085FFD0D304
:1025300000BF00210DF58050C0F8F414C0F8F81465
:102540006949D0F8D80407F077FF05D86A480DF537
:102550008051C1F8D80420E00DF5805000F5CC7210
:10256000D0F8D814D0F8000542F820100DF58050AE
:102570000DF67862D0F8D014D0F8000542F820109B
:102580000DF58050D0F80005411C0DF58050C0F8C5
:1025900000155949C0F8D81400BF0DF58051D1F885
:1025A000D004401DC1F8D0040DF58050D0F8D004FF
:1025B0000DF58051D1F8CC148842FFF48DAE0DF5A5
:1025C0008050D0F80005400841F29811694451F854
:1025D00020100DF58050C0F8D814D0F80005400840
:1025E0000DF6786151F820100DF58050C0F8D01428
:1025F000D0F8D00407F0F5FD0DF580511990D1F811
:10260000D00407F0EEFD17900DF58050D0F80415BA
:10261000179807F0E5FB1890199907F0E1FB0146C0
:102620000DF58050D0F8100501600DF58050D0F800
:10263000D00407F0D6FD4FF0804118900DF5805082
:10264000D0F8040507F0CCFB16900DF58050D0F8BB
:10265000D814169807F0C4FB1790189907F0C0FB20
:1026600019900DF58050D0F80815199807F0B2FBB5
:1026700001460DF58050D0F80C0501600DF5805035
:10268000D0F8D8040DF58051C1F8D404D1F8D004A5
:10269000C1F8C8040020C1F80005DAE10DF580504A
:1026A000D0F8C80400F10A010DF58050C0F8C81434
:1026B000D0F81005006880F000410DF580501991A8
:1026C000D0F80C0501681891199807F0BBFB01467A
:1026D0000DF58050C0F8E814D0F8C8040EE00000F2
:1026E0009A9999999999B93F000048420000E03FB2
:1026F000CDCCCCCCCCCCEC3F9A99D93F07F071FD36
:102700004FF0804116900DF58050D0F8040507F089
:1027100067FB14900DF58050D0F8D414149807F08E
:102720005FFB1590169907F05BFB17900DF5805035
:10273000D0F80815179807F04DFB0DF5805119904A
:10274000D1F8C80407F04DFD0DF580511790D1F870
:10275000C80407F046FD15900DF58050D0F804151B
:10276000159807F03DFB1690179907F039FB80F09C
:1027700000411891DDE9180107F064FB01460DF5F1
:102780008050C0F8EC14022100F59D60FFF738FB83
:102790000DF58050D0F804050DF58051C1F8C40442
:1027A000D1F8C80407F01DFD4FF0804115900DF5DC
:1027B0008050D0F8040507F013FB13900DF58050FE
:1027C000D0F8D414139807F00BFB1490159907F068
:1027D00007FB16900DF58050D0F80815169807F0F5
:1027E000F9FA17900DF58050D0F80C050168169194
:1027F000179807F0F5FA19900DF58050D0F80C05F0
:1028000001680DF580501791D0F80815179807F05A
:102810008FFA1890199907F08BFA0DF58051C1F8CD
:10282000C004D1F8C80407F0DCFC4FF080411590DB
:102830000DF58050D0F8040507F0D2FA13900DF58D
:102840008050D0F8D414139807F0CAFA1490159950
:1028500007F0C6FA16900DF58050D0F808151698B6
:1028600007F0B8FA17900DF58050D0F81005016800
:102870001691179807F0B4FA0DF580511990D1F818
:10288000C80407F0AEFC0DF580511690D1F8C804CD
:1028900007F0A7FC14900DF58050D0F80C050168E6
:1028A0000DF580501291D0F8040507F099FA1390B5
:1028B000149907F095FA1590169907F091FA179068
:1028C0000DF58050D0F8100501681691179807F0A3
:1028D0002FFA1890199907F02BFA0DF58051C1F8CD
:1028E000BC04D1F8C80407F07CFC0DF580511990A8
:1028F000D1F8C80407F075FC17900DF58050D0F89A
:10290000100501680DF580501591D0F8040507F009
:1029100067FA1690179907F063FA1890199907F05B
:102920005FFA0DF58051C1F8B80401F2DC40009067
:102930000846D0F8B834D0F8BC24D0F8C014D0F889
:10294000C404FFF7A8FA0DF58051C1F8FC04D1F8D2
:10295000FC04012800D17CE0032141F2DC40684402
:10296000FFF74EFA0DF58050D0F8DC141791D0F82F
:10297000E8141691DDE9160107F02CFA1890FFF71C
:102980007EFAFE49199007F04DFD61D20DF5805198
:10299000D1F8E00401461890F94807F021FA0DF546
:1029A00080511990D1F8E40401461890199807F065
:1029B00043FD4DD20DF58050D0F8200580F0004148
:1029C0001891EE49189807F03DFA19900DF58050CE
:1029D000D0F8E0141891199807F024FD38D20DF5BD
:1029E00080500DF6C812D0F8C814D0F8000542F88F
:1029F00020100DF58050D0F8E0141891D0F8EC14A8
:102A00001791DDE9170107F0E5F91990FFF737FA9B
:102A100001460DF5A3620DF58050D0F8000542F88F
:102A2000201011460DF58050D0F8000551F8201007
:102A30001AAA0DF58050D0F8000542F820100DF5C7
:102A40008050D0F80005401C0DF58051C1F80005FC
:102A500000BF0DF58051D1F82015C94807F0C0F925
:102A600019900DF58050D0F8E4141891199807F0DA
:102A7000D9FC08D20DF58050D0F8C80442F210718C
:102A80008842FFF40BAE0DF58050D0F80005D0B9A8
:102A900000210DF58050D0F8180501600DF580502B
:102AA000D0F81C0501600DF58050D0F80C050160D0
:102AB0000DF58050D0F81005016001200DF2145D75
:102AC0000DF5805D00BD0DF58050D0F800150DF6B8
:102AD000C810FFF7B6F90DF58050D0F80005400892
:102AE0000DF6C81151F820100DF58050C0F8C8142B
:102AF000D0F8C80407F075FB0DF580511990D1F896
:102B0000C80407F06EFB17900DF58050D0F804153F
:102B1000179807F065F91890199907F061F90146BF
:102B20000DF58050D0F8180501600DF58050D0F8F3
:102B3000C80407F056FB4FF0804118900DF5805007
:102B4000D0F8040507F04CF916900DF58050D0F838
:102B5000D414169807F044F91790189907F040F923
:102B600019900DF58050D0F80815199807F032F932
:102B700001460DF58050D0F81C05016000209DE74E
:102B80002DE9FE4F7F48C07801281CD100207E49E6
:102B9000088002207B49C87000217C4A1160516086
:102BA0007B4A116051607B4A1160516000207A4974
:102BB00048610861794908807349088001214FF410
:102BC0004870FDF770FB6F48C07802286AD16E48E4
:102BD0000088401C80B26C490880B0F5FA6F0ADAB0
:102BE0006E480088B0F5487F05D103210020FDF72D
:102BF0005AFBBDE8FE8F69480088B0F5487F04D1D4
:102C000000214FF44870FDF74EFB5E48C078022863
:102C1000DCD162480088401C604908800846008872
:102C2000B0F5C86F3FDA00225D4B5A4903C907F07F
:102C300047F9584A03C25B48026941691046FEF7EA
:102C400029F8044651480CC8204607F039F94F4A84
:102C500003C254488268C1681046FEF71BF8044658
:102C60004B480CC8204607F02BF9494A03C24B4891
:102C7000008840F28A218842A8D14A480269416905
:102C80001046FEF707F8484A03C246488268C16802
:102C90001046FDF7FFFF454A03C200214048444A61
:102CA000C2E9001097E03D480088B0F5C86FF9D13F
:102CB00003210020FDF7F7FA34483C490CC803C94A
:102CC00007F0A5F904460D46314837490CC803C939
:102CD00007F09DF9064622462B4607F092F98046FA
:102CE00089462A4832490CC803C907F090F90446BE
:102CF0000D4628482C490CC803C907F088F9064638
:102D000022462B4607F07DF9824642464B4607F0A5
:102D1000F0F9CDE9000107F069FB1F4948614869F6
:102D200007F020FB804621480CC8404607F06FF9A9
:102D300082461F480CC8504607F066F906461A48F6
:102D40000CC8304607F0D5F9044607F04FFB12498E
:102D500008613821174806F0E0FF0F48416916481E
:102D600007F03EF805460C480169284607F06AF866
:102D7000044610483430A0F108011FE00000404034
:102D8000000020C1FC0200207A0100204801002040
:102D90005001002058010020230A00207801002063
:102DA00000003840A80900206001002068010020D0
:102DB000700100203F0A00200000F041944ACDE954
:102DC0000104009151691069924B1A1FFFF7D1F964
:102DD00003209149C87000BF0BE72DE9FF5F04464F
:102DE0000D468E480078042802D100208B490870D7
:102DF0008A4801780078401C884A1070884800EBA7
:102E0000C10030C08648D0E902633246D0E9008173
:102E1000404607F055F882468148D0E904633246BF
:102E2000504607F04DF8CDE900017D48D0E9066332
:102E30003246009807F044F800227A4BCDE90201AF
:102E400007F057F904B0BDE8F09F012076490870FB
:102E500070472DE9F05F7448007808B9BDE8F09F2D
:102E600000F07EFCFDF718FCFDF74EFE6F48016890
:102E700040686F4A116050606C488168C06891601A
:102E8000D0606C49B1F8010007F0C1F904460D4665
:102E900069490868496807F0C7F98046674A684B7E
:102EA00007F0B5F8064622462B4607F022F95F4A9E
:102EB000106051605E4804684368104606684168C7
:102EC0002246304607F09DF88246FFF786FF80468F
:102ED0005C4A5D4B07F00DF95C4A03C253488668B3
:102EE000C3683246594903C907F08BF880468946C2
:102EF0005049087A07F08BF90646524A524B07F0C0
:102F000086F8044642464B4607F081F88246474819
:102F10008468C3682246504606F0D2FF434A906058
:102F2000D16043498C68CB6810468668C1682246E8
:102F3000304607F066F88046424A434B07F0D9F81E
:102F4000424A03C239490E694B6932463F4903C9B7
:102F500007F057F804460D463649487A07F057F906
:102F60000646384A384B07F052F8804622462B4630
:102F700007F04DF882462D480469436922465046C1
:102F800006F09EFF294A10615161FDF707FC2248B7
:102F90008078022836D1254890F82600002831D1C3
:102FA0001D48C07840B31C480078052822D2DFE8CD
:102FB00000F00306110E1900FFF7E2FD1BE01648B2
:102FC000407808B900F054FCFDF778FE13E0FEF7F6
:102FD00089F810E01048407808B900F049FCFEF785
:102FE000D1F908E00C48407808B900F041FCFEF740
:102FF0003CFC00E000BF09E0154801780020FDF727
:1030000052F903E003210020FDF74DF900BF25E749
:10301000230A0020630A0020FC0200207C0100201B
:10302000E00500200000104076000020A8090020E4
:10303000FA09002098090020C80200205045525487
:10304000FB21F93FFCA9F1D24D62503FB8010020AD
:103050006400002010B500244CF250333822FB49A4
:10306000A02000F0C1FF044610BD08B5002000906C
:103070003822F749F54806F037FE4CF2503301226A
:103080006946992000F0B0FF00909DF9000008BD4E
:10309000704708B500200090EE4981F82600EE4800
:1030A0008078022804D10122C101EC4802F0B2F874
:1030B000E948407808B901F006FB4CF25033012290
:1030C0006946972000F090FF00909DF9000008BD30
:1030D0007047002040F6B8310022DF4B1A70012201
:1030E000DA70704710B500244CF250330122DA49EF
:1030F000491C912000F078FF0446204610BD2DE9C0
:10310000F84F00200090D248801F8079E0B9D24863
:103110004078C8B100F0E8FBD149D1F8030007F0CE
:1031200076F88046CB488669C3693246404606F049
:103130006EFF0446CB4ACC4B06F0DBFF824607F01D
:10314000ECF8CA4A03C20BE0C148801F807901280D
:1031500006D1C1484078012802D00020BE49C8707D
:10316000BB48801F8079BC4948704CF25033012223
:103170006946902000F038FF00909DF90000BDE8FE
:10318000F88F2DE9F04105460F4614460026B0465B
:1031900018E008F1020835F806C062460023012055
:1031A000216801F02CFC10B10120BDE8F0812068FD
:1031B0000088A95B884201D00120F6E72068801CC6
:1031C0002060B61CB81C8045E3D300BF0020ECE7AC
:1031D000F0B5FFB0002001900027A5480090002026
:1031E000A4490860A24888600120C86001F05BFC27
:1031F000A149A04801F095FC08B1FF2001901025DD
:10320000002404E09648005D02A90855641CAC4205
:10321000F8D305F12900C5B2002606E03046761C39
:103220009649085C02A90855641CAC42F6D305F126
:103230001C00C5B2002606E03046761C9049085CAA
:1032400002A90855641CAC42F6D3281DC5B200265D
:1032500006E03046761C8049085C02A90855641CCB
:10326000AC42F6D305F13800C5B2002606E0304680
:10327000761C7649085C02A90855641CAC42F6D35A
:1032800010227749002000F055FA074629227B4991
:10329000384600F04FFA07461C227949384600F0BC
:1032A00049FA074604226C49384600F043FA0746BB
:1032B00038226649384600F03DFA074602A807550D
:1032C0006A462146FFF75DFF019001F0FBFB4CF2DF
:1032D0005033012201A98F2000F086FE9DF90400E1
:1032E0007FB0F0BD10B500244CF2503301225A4992
:1032F000891C962000F078FE204610BD08B50020FD
:10330000009001205449887000220102534801F0C6
:1033100081FF4CF25033012269468E2000F064FE9A
:1033200000909DF9000008BD08B500200090022023
:10333000494988700122C101484801F06BFF4CF2F5
:103340005033012269468C2000F04EFE9DF90000AA
:1033500008BD10B500244CF250331C2248498B2084
:1033600000F042FE0446204610BD08B50020009043
:103370001C223749424806F0B7FC4CF25033012278
:1033800069468A2000F030FE00909DF9000008BDDB
:1033900010B500244CF2503329223849892000F01E
:1033A00023FE0446204610BD2DE9FE4F0120029069
:1033B0002948C078022803D127484078002839D10D
:1033C000292223492D4806F08FFC2549B1F8010038
:1033D00006F01DFF8046294806684368324640468D
:1033E00006F015FE8246274A274B06F082FECDE9FD
:1033F000000106F092FF04460D461949B1F801009C
:1034000006F005FF804689462046294606F00CFF57
:1034100006461C4A1C4B06F0FAFD824642464B46C5
:1034200006F067FE154A1060516001200A49C87015
:10343000002002904CF25033012202A9882000F0B3
:10344000D3FD02909DF90800BDE8FE8F3F0A0020E1
:103450005E090020A8090020FC020020000C0140A9
:103460009809002044174154FB211940D80200203C
:10347000009001088C060020C0010020D109002026
:10348000230A002050455254FB21F93F10B5002477
:103490004CF2503301229F49872000F0A5FD0446DD
:1034A000204610BD38B50024062000909A48807947
:1034B000984908704CF2503301226946862000F08A
:1034C00093FD0446204638BD10B500244CF250331D
:1034D00010229249852000F087FD0446204610BD49
:1034E00010B5002410228C49891D8C4806F0FCFB85
:1034F0004CF2503310228949842000F075FD0446B7
:10350000204610BD70472DE9F04100263C27781D6C
:1035100007F0DEFD044601F0C6FA46B22670804D83
:1035200007E029687E48281A8208601C40F82210AB
:103530002D1D7B4838448542F3D33CB14CF25033C7
:103540003D222146022000F04FFD01E04FF0FF3602
:1035500001F0B8FA3046BDE8F08110B54CF25033B6
:1035600000221146812000F03FFD01F0ACF810BDB3
:103570007047AFF203006B490860AFF2210048606A
:10358000AFF27D008860AFF28300C860AFF2AF0099
:103590000861AFF2CB004861AFF2F7008861AFF28B
:1035A0001310C861AFF2FF100862AFF21B2048622F
:1035B000AFF249208862AFF26520C862AFF297206F
:1035C0000863AFF2C7208863AFF2E7208865AFF2E7
:1035D000FF30C863AFF2D9400864AFF2F7404864E7
:1035E000AFF211504865AFF217508864AFF25D50EA
:1035F000C865AFF263500866AFF291504866AFF20B
:10360000AB50C1F88000704770B5044600252079A2
:1036100021280ADA402221463F4806F065FB21793D
:10362000404A52F82100804700E00125284670BD3D
:1036300010B500244CF250331C223B49952000F079
:10364000D3FC044610BD10B500244CF2503329229F
:103650003649092000F0C8FC0446204610BD1CB5C0
:10366000044694F900000A2851D2DFE800F0500522
:103670000D151D203240444BD4F8050006F072FEB3
:103680002B4A1060516043E0D4F8050006F06AFE52
:10369000274A9060D1603BE0D4F8050006F062FE56
:1036A000234A1061516133E001F00DF830E01F480A
:1036B00002684168104606F099FE01906FF07F4065
:1036C0000090A27851B22078042301AA00F0BEFB3A
:1036D0001EE002200F49887000F05CF80021144AB7
:1036E000116051600846114A9161D16110E00120DA
:1036F000084988700CE00D488169C0690C4A116066
:10370000506005E00020094981F8260000E000BF74
:1037100000BF1CBDFC0200205809002098090020B1
:103720000090010808060020230A0020A8090020B4
:10373000D109002030B503460AB9184630BD83F0E0
:10374000FF038C1800BF11F8010B5840034D2B5C90
:10375000A142F8D383F0FF00F0E70000C40100208D
:103760003D49B1F900103D4A11803D49096809B24F
:10377000394A118011460988384A1288891A08B2D4
:1037800038490B6849681B1841EBE071354A1360F2
:103790005160704700B572B6002031490860FFF7EC
:1037A000DFFF00212F4A1160516062B600BD10B5E5
:1037B0009EB0044600BF2C48806940F008002A49AA
:1037C00088610846806900F00800019000BF00BFD2
:1037D00000BF0846C06940F00400C8610846C069DF
:1037E00000F00400019000BF00BF00200C900D907D
:1037F00003200E90C0200B900BA91C4801F084FB05
:10380000174824380F90002010904FF6FF71129146
:103810000021139111910FA803F09EFB0FA803F054
:10382000E1FC03200290C4F10F000690C4F10F00E8
:103830000A9000200590099003900790FFF7AAFFD7
:1038400002A90FA803F073FC18210FA803F0EDFCE8
:10385000FFF7A0FF1EB010BDD0020020D202002052
:1038600024080040C802002000100240000C014063
:103870007949B1F90010794A11807949096809B28A
:10388000754A118011460988744A1288891A08B24B
:1038900010B10121734A11707349097849B1734914
:1038A0000B6849681B1841EBE071704A1360516066
:1038B00008E06E490B6849681B1A61EBE0716B4ABE
:1038C00013605160704710B52020694908602021BD
:1038D000684801F097FC18B1674803F057FB02E015
:1038E000654803F062FB10BD00B589B000BF6348B6
:1038F000806940F00400614988610846806900F0F1
:103900000400009000BF00BF00BF0846806940F07F
:10391000080088610846806900F00800009000BF38
:1039200000BF00BF0846C06940F00200C8610846F9
:10393000C06900F00200009000BF00BF5048069030
:1039400002200790032008902020059005A94D48EB
:1039500001F0DAFA00220121172000F069FE172099
:1039600000F0A4FE0020069002200790032008909B
:103970001020059005A9434801F0C6FA38482438BC
:103980003D490860002048604FF6FF713A48C16029
:1039900000210161816003F0DFFA3B48406820F4B8
:1039A000406040F40060384948600F2004900220D5
:1039B0000290002003905020019001A92E4803F0AE
:1039C00092FE2D4803F0E2FAFFF77DFF20212D48FB
:1039D00001F018FC24490870FFF74AFF0021234A30
:1039E0001160516009B000BD10B50446207E022868
:1039F00023D10421204603F063FF244908600846D0
:103A00000068A8B10021204603F05AFF6421484312
:103A10001E490968B0FBF1F01D49086002F055FF2E
:103A200040081A490968B0FBF1F01A49086004E03F
:103A30000020174908601749086010BD10B5FFF74E
:103A400017FF20200A49086020210E4801F0DAFB08
:103A50000549087010BD0000F8020020FA0200209D
:103A60002404004002000020EC020020D8020020C4
:103A700014040140000801409C0600200010024090
:103A800000003110000C014000000140E002002065
:103A9000E4020020E802002000B595B0142110A82F
:103AA00006F03BF9282106A806F037F9002002901D
:103AB0000390049005900120069007900020089044
:103AC0004FF4E0110F9102200D90C1030E9106A852
:103AD00002F0C4F8102002900020059002A803F024
:103AE0004FF90F20109002201190002012904FF4F7
:103AF000A060139000201490022110A802F028FF6B
:103B000000BF6148806940F001005F498861084654
:103B1000806900F00100019000BF00BF15B000BD3A
:103B200000F0B7FAFFF7B8FFFCF7EBFAFCF748FC38
:103B30000020FCF7FFFB642000F0C5FA0022534987
:103B4000534804F0A7FF5349514804F0BCFF5048C4
:103B500004F0C1FFFCF758FC4F4908700846007894
:103B600030B10420FCF7E6FB40204C4981F82600E8
:103B7000FCF703FD4A49C879FFF719FEFCF7DFFAA5
:103B8000FFF7F7FC4748407870B1012804D00228BD
:103B900009D003280CD108E0414A1178D2F803007B
:103BA00000F09BF805E004E000BFFFF79DFE00E099
:103BB00000BF00BF4FF47A7000F085FAFFF745F9B7
:103BC00001221102384801F025FB01203549C87057
:103BD0000220FCF7AFFB0120FCF7ACFB52E02C48C5
:103BE000D0F81802407B012807D100202849D1F8DD
:103BF000181248732D4800F01DFA2A484078012811
:103C000001D100F0EBF8224890F8FC01032813D111
:103C100000F056FA2149C1F822000846D0F82200E7
:103C200023490968884207D9FFF70DFD1B48D0F8E2
:103C30002200401D1E4908601A48007840B9194802
:103C4000C078032804D1FFF7F3FC00201549C870A1
:103C500000F036FA17490968884206D900F030FAB0
:103C6000C83014490860FCF7F7FD00F029FA124942
:103C70000968884206D900F023FAC8300E49086066
:103C8000FCF78DFEABE7000000100240AC03002003
:103C9000F40600204003002014030020A80900209F
:103CA00098090020FC020020000C0140770A002047
:103CB00008030020100300200C03002010B5022090
:103CC0009349486000219248816047F23051C160B9
:103CD0000021016103F040F910BD7FB504460D4697
:103CE00001200190002002900320039020200090EA
:103CF0006946884801F008F94020009002200190B0
:103D0000012002906946834801F0FEF8802000906F
:103D10006946804801F0F8F87F4880490860084605
:103D2000446000218160C1604FF4C06101610021E5
:103D300081610C21416103F015FF78480068C0687B
:103D400040F4807075490968C8607448006840692B
:103D500040F0010071490968486170480068C06816
:103D600040F020006D490968C86001206C49087066
:103D70006C480570FFF7A2FF04B070BD0146002239
:103D800091F9000042404878504042B28878504053
:103D900042B291F903004240002304E0481DC0569E
:103DA0004240581CC3B291F903009842F6DCD0435C
:103DB00040B2704701B501222021564801F02AFA8D
:103DC0004FF6FF7301226946544803F07FFF00223B
:103DD0002021504801F01EFA08BD704710B5504828
:103DE0000078032831D10A224F49504805F07CFF62
:103DF0004E4840784B490978884226D1012220213B
:103E0000444801F007FA4948FFF7B8FF474991F9DC
:103E1000041088420ED101204149087043480078BF
:103E200000F0100010B1AE20FFF7C4FF3F48FFF7CD
:103E300016FC0AE007203A4908703C48007800F078
:103E4000100010B1BE20FFF7B5FF10BD2DE9FE4FE9
:103E50000746884691461D46DDF830A00122202104
:103E60002C4801F0D7F978B28DF8000008F0FF0077
:103E70008DF801002B4800788DF8020068B28DF8AB
:103E80000300002406E019F8040041B20DF105001A
:103E90000155641CAC42F6DB6846FFF76FFF8DF8F6
:103EA00004009DF90300401D82B24FF6FF7369467E
:103EB0001A4803F00BFF46B29DF8000000F0100016
:103EC00000B9E6B900222021124801F0A3F906202A
:103ED0001349087000BF12480078062804D1BAF1CF
:103EE0000000AAF1010AF6D1BAF1000F06D010487D
:103EF00090F90000AE2801D1002600E00126012241
:103F00002021044801F086F93046BDE8FE8F00000C
:103F10002C0B0020000C014000380140EC0A00206E
:103F20001C03002021030020680B0020A80B0020A8
:103F300020030020704700BFFEE700BFFEE700BF80
:103F4000FEE700BFFEE770477047704710B500F00E
:103F5000B1F8FEF77EFF10BD10B5074801F0CCFCAC
:103F600010BD4FF4802005490860704710B5FFF779
:103F700065FD10BD70477047D80B00201404014048
:103F800070B504466088402811DA0222A11C002086
:103F9000FFF7D0FB05460122211D2846FFF7CAFB8B
:103FA00005466288A11D2846FFF7C4FB0546284642
:103FB00070BD2DE9F04106460F4690461C464FF66F
:103FC000AF20208066802771002505E018F80510D5
:103FD000A01D4155681C85B2B542F7DB2046FFF7AE
:103FE000CFFF6071BDE8F0812DE9F04190B005464A
:103FF0000E4617461C464FF000086B4632462946CF
:104000003846FFF7D6FF05E00CB1641E02E04FF022
:10401000FF380AE0BDF80200801D83B26A468121A4
:10402000114805F016FC0028EED100BF404610B044
:10403000BDE8F08130B591B004460025402221460C
:1040400001A805F051FE01A8FFF79AFF9DF809109D
:10405000884203D101A8FFF7D7FA01E04FF0FF35FE
:10406000284611B030BD0000F4060020704770B53E
:10407000044602F02AFC4FF47A71B0FBF1F52846B1
:1040800000F034FB00222146501E00F0D1FA00203F
:1040900070BD10B51248006840F01000104908606B
:1040A000032000F0B3FA0F20FFF7E1FF01F0C8F89A
:1040B000002010BD0B480068401C0A49086070478A
:1040C00008480068704731B50024FFF7F9FF04463F
:1040D00000BFFFF7F5FF001B00998842F9D338BDF8
:1040E000002002402403002070B50446002520680B
:1040F000806800F00100E8B12068806820F00100CD
:1041000021688860FFF7DCFF05460DE0FFF7D8FF68
:10411000401B022808D9042084F82900E06A40F0F6
:104120000100E062012070BD2068806800F001009D
:104130000028EBD10020F6E770472DE9F041044656
:10414000002700250026A84614B90120BDE8F0810B
:10415000A06800B100BF94F8290028B9002084F8B5
:1041600028002046FCF7A3F92046FFF7BDFF0746CD
:10417000012F64D0022084F82900E16960680843B7
:10418000022292FAA2F2B2FA82F2E1689140084366
:104190000643A068B0F5807F02D0A068012802D154
:1041A0004FF4807000E000200543606901280DD1C4
:1041B000E06858B9A069401E4FF4604191FAA1F13E
:1041C000B1FA81F1884040F40060054320684068FE
:1041D00020F4694028432168486020688068F749D6
:1041E0000840304321688860A068B0F5807F09D11D
:1041F0002069401E4FF4700191FAA1F1B1FA81F1EA
:1042000000FA01F82068C06A20F4700040EA080053
:104210002168C86220688068E9490840B04205D139
:104220000020E062012084F829000CE0042084F8DA
:104230002900E06A40F00100E062012703E0042069
:1042400084F829000127384680E738B50446002560
:10425000002000902068806800F0010078BB206892
:10426000806840F0010021688860D6480068D6491F
:10427000B0FBF1F0009002E00098401E0090009822
:104280000028F9D1FFF71CFF054612E0FFF718FFE1
:10429000401B02280DD9042084F82900E06A40F070
:1042A0000100E06200BF002084F8280000BF012068
:1042B00038BD2068806800F001000028E6D00020AA
:1042C000F6E7704770B505466C6A042084F829004B
:1042D000E06A40F00400E0622046FFF7F2FF70BDA4
:1042E000704770B50446656A2846FFF7F9FF70BD50
:1042F000704770B505466C6A94F82900042812D0FE
:1043000094F8290035280AD094F82900252803D1EB
:10431000352084F8290002E0152084F82900204681
:10432000FFF7E6FF03E0606A016B2846884770BD2F
:104330002DE9F04104460D4616460027A3492068A2
:10434000884203D0A2492068884205D19F48001DB9
:10435000006800F4702000E0002000285CD100BF5D
:1043600094F82800012802D10220BDE8F081012044
:1043700084F8280000BF2046FFF767FF0746012F9B
:1043800045D094F82900222803D1322084F829004E
:1043900002E0122084F8290000BF002084F82800E1
:1043A00000BFE062AFF2B500616A8862AFF2CD0093
:1043B000616AC862AFF2F300616A0863206800684E
:1043C00020F00200216808602068806840F4807056
:1043D00021688860226802F14C0133462A46606AEF
:1043E00000F09AFA2068806800F46020B0F5602F31
:1043F00006D12068806840F4A000216888600CE045
:104400002068806840F480102168886005E000BF63
:10441000002084F8280000E001273846A5E778B599
:10442000024600230020009000BF92F828000128D7
:1044300001D1022078BD012082F8280000BF486821
:1044400007281DD21068446B0879401E4FF4787518
:1044500095FAA5F5B5FA85F568431F25854024EA48
:1044600005000C79641E4FF4787696FAA6F6B6FA33
:1044700086F674430D68A5402843146860633DE0E8
:1044800048680D281DD21068046B0879C01F4FF4CE
:10449000787595FAA5F5B5FA85F568431F25854029
:1044A00024EA05000C79E41F4FF4787696FAA6F614
:1044B000B6FA86F674430D68A54028431468206355
:1044C0001CE01068C46A08790D384FF4787595FAC5
:1044D000A5F5B5FA85F568431F25854024EA050052
:1044E0000C790D3C4FF4787696FAA6F6B6FA86F675
:1044F00074430D68A54028431468E06208680A28E0
:104500001BD31068C46808780A38382595FAA5F5D1
:10451000B5FA85F568430725854024EA05000C783F
:104520000A3C382696FAA6F6B6FA86F674438D68E3
:10453000A54028431468E06017E0106800690C7813
:10454000382595FAA5F5B5FA85F56C430725A540FC
:10455000A8430D78382696FAA6F6B6FA86F675437D
:104560008C68AC402043146820610868102802D091
:104570000868112832D1154C1068A0422AD1106861
:10458000806800F4000048BB1068806840F40000B8
:104590001468A0600868102820D10A4800680A4CF6
:1045A000B0FBF4F000EB80004000009002E00098C7
:1045B000401E009000980028F9D10FE0FDF7E1FFC0
:1045C000FE0F1FFF2803002040420F00002401407F
:1045D00000280140042082F82900012300BF0020A8
:1045E00082F8280000BF184624E7000010B5002814
:1045F00007DA0A07140E4D4A00F00F031B1FD454AC
:1046000003E00A07130E4A4A135410BD00BF00F01E
:104610000702464B0C3B19684FF6FF031940454B08
:104620000B4343EA0221414B0C3B196000BF70472A
:104630002DE9F05F80460D461646002700F070F821
:10464000074639462A46334601F00700C0F1070AFB
:10465000BAF1040F02D94FF0040A01E0C0F1070AD1
:10466000D14600F1040ABAF1070F02D24FF0000A56
:1046700001E0A0F1030AD4464FF0010A0AFA09FA50
:10468000AAF1010A0AEA020A0AFA0CFA4FF0010B2F
:104690000BFA0CFBABF1010B0BEA030B4AEA0B0420
:1046A00021464046FFF7A2FFBDE8F09F00BF00F0A3
:1046B0001F02012191404209920002F1E022C2F85A
:1046C000001100BF704700BFBFF34F8F17480C3871
:1046D000006800F4E06017490843001D13490C39D5
:1046E0000860BFF34F8F00BF00BFFEE770B5044600
:1046F0002546681EB0F1807F01D301200FE0681EBF
:104700004FF0E02148610F214FF0FF30FFF76EFFBF
:1047100000204FF0E021886107200861002070BD73
:1047200002480C380068C0F30220704718ED00E022
:1047300000E400E00000FA050146002209B901206A
:10474000704791F8210010B9002081F82000022064
:1047500081F821000868026843F6F0708243D1E9CD
:1047600001031843CB6818430B6918434B6918437E
:104770008B691843CB691843024308680260002024
:104780004863012081F821000020D9E7014609B9DA
:104790000120704791F82100022801D10120F8E79B
:1047A0000868006820F001000A68106000200A68AC
:1047B00010600A6850600A6890600A68D060744AA5
:1047C0000868904201D1022027E0714A143208683B
:1047D000904201D1202020E06D4A283208689042A2
:1047E00001D1401519E06A4A3C320868904202D172
:1047F0004FF4005011E0664A50320868904202D1EE
:104800004FF4003009E0624A64320868904202D1F5
:104810004FF4001001E04FF000705D4A083A50601C
:104820005B4A0868904201D1082027E0584A1432B8
:104830000868904201D1802020E0554A283208685B
:10484000904201D1C01419E0514A3C3208689042AC
:1048500002D14FF4004011E04D4A503208689042B6
:1048600002D14FF4002009E0494A643208689042BE
:1048700002D14FF4000001E04FF00060444A083AD2
:104880005060434A0868904201D1042027E0404A22
:1048900014320868904201D1402020E03C4A28327E
:1048A0000868904201D1001519E0394A3C32086885
:1048B000904202D14FF4804011E0354A50320868EE
:1048C000904202D14FF4802009E0314A64320868F6
:1048D000904202D14FF4800001E04FF080602C4AFA
:1048E000083A50600020486381F8210000BF81F839
:1048F000200000BF00BF4CE710B504686360446847
:10490000102C04D10468A2600468E16003E004682C
:10491000A1600468E26010BD2DE9F04104460D4637
:1049200016461F4600BF94F82000012802D102203D
:10493000BDE8F081012084F8200000BF022084F847
:1049400021002068006820F00100216808603B46D3
:10495000324629462046FFF7CFFF2068006840F026
:104960000200216808602068006840F004002168A7
:1049700008602068006840F008002168086020682E
:10498000006840F00100216808600020D0E70000C6
:104990000800024070B50446FFF792FB054609E0A7
:1049A000601C38B124B1FFF78BFB401BA04201D93A
:1049B000032070BD4748C06800F001000028EFD117
:1049C0004448C06800F0200020B100BF20204149C9
:1049D000C86000BF3F48C06800F0100048B93D48BB
:1049E000C06800F0040020B93A48C06900F0010036
:1049F00018B100F04FFA0120DBE70020D9E72DE9DC
:104A0000FE4F05468B461746984601260024002097
:104A1000029000BF3048007E012802D10220BDE88C
:104A2000FE8F01202C49087600BF4CF25030FFF772
:104A3000B1FF064686BB012D02D10120029006E09F
:104A4000022D02D10220029001E0042002900024F5
:104A50001EE02201B946C2464846514605F034F9E7
:104A600080B20190022000FB04B00090019900F098
:104A700006FA4CF25030FFF78DFF064615480069E4
:104A800020F001001349086106B104E0601CC4B2C3
:104A900002988442DDDB00BF00BF00200E4908768B
:104AA00000BF3046BBE70B48006900F0800028B12A
:104AB0000A48084948600A48486001E001207047F8
:104AC0000020FCE70348006940F0800001490861CC
:104AD0000020704700200240B80B002023016745EA
:104AE000AB89EFCD0021FE4AD161FE49096941F051
:104AF0000201FC4A116111464861096941F0400117
:104B0000116170470021F64AD161F649096941F007
:104B10000401F44A11611146096941F04001116133
:104B200070472DE9F04104460E460127002500BFDD
:104B3000EB48007E012802D10220BDE8F08101206F
:104B4000E749087600BF2068022814D14CF25030A3
:104B5000FFF720FF002844D10120FFF7D3FF4CF2DC
:104B60005030FFF717FF0746DE48006920F00400C9
:104B7000DC49086135E04CF25030FFF70BFF80BB99
:104B8000206802280ED16068FFF7BCFF4CF250305D
:104B9000FFF700FF0746D348006920F00400D14921
:104BA00008611EE04FF0FF303060A56812E0284633
:104BB000FFF798FF4CF25030FFF7ECFE0746C9486C
:104BC000006920F00200C74908610FB1356007E0B5
:104BD00005F58065D4E9021001EB8020A842E6D8F3
:104BE00000BF00BF0020BE49087600BF3846A4E7DA
:104BF00070B5044600254CF25030FFF7CBFE054659
:104C0000ADB90020B649C861B648006940F010004F
:104C1000B4490861B44804804CF25030FFF7BAFE42
:104C20000546B048006920F01000AE4908612846EA
:104C300070BD0020AB49C96901F0020109B1012032
:104C400000E00020704770B504460D4601264CF286
:104C50005030FFF79FFE0646A6B90020A049C86164
:104C6000A048006940F010009E49086125804CF280
:104C70005030FFF78FFE06469A48006920F010007A
:104C800098490861304670BD70B5044600254CF265
:104C90005030FFF77FFE0546C5B900209049C86136
:104CA0009048006940F010008E49086144F0F80017
:104CB0008D49891C08804CF25030FFF76BFE054689
:104CC0008848006920F0100086490861284670BDB8
:104CD0002DE9F047044600254FF6FF763746B046EB
:104CE000B146E6B2C4F30727C4F307484FEA146994
:104CF0004CF25030FFF74EFE0546002D4CD178495E
:104D0000C8617848006940F0100076490861FF2EBC
:104D10000BD075480830008830437349083108804B
:104D20004CF25030FFF736FE05466DB9FF2F0BD021
:104D30006D480A30008838436B490A3108804CF2CC
:104D40005030FFF727FE05467DB9B8F1FF0F0CD0B4
:104D500065480C30008840EA080063490C3108803F
:104D60004CF25030FFF716FE05467DB9B9F1FF0F42
:104D70000CD05D480E30008840EA09005A490E31D7
:104D800008804CF25030FFF705FE05465548006993
:104D900020F01000534908612846BDE8F0872DE94E
:104DA000F047044600254FF6FF763746B046B14639
:104DB000E443E6B2C4F30727C4F307484FEA146993
:104DC0004CF25030FFF7E6FD0546002D4CD144492A
:104DD000C8614448006940F0100042490861FF2E54
:104DE0000BD041480830008830403F4908310880E6
:104DF0004CF25030FFF7CEFD05466DB9FF2F0BD0BA
:104E000039480A300088384037490A3108804CF266
:104E10005030FFF7BFFD05467DB9B8F1FF0F0CD04C
:104E200031480C30008800EA08002F490C31088016
:104E30004CF25030FFF7AEFD05467DB9B9F1FF0FDA
:104E40000CD029480E30008800EA090026490E31AE
:104E500008804CF25030FFF79DFD0546214800695F
:104E600020F010001F4908612846BDE8F0871D4862
:104E7000C069C0F3820070471A48006A7047002278
:104E8000174BDA61174A126942F00102154B1A6199
:104E9000018070471348C06800F0100028B1104826
:104EA000C06940F002000E49C8610E48C06800F0B9
:104EB000040028B10A48C06940F001000849C861EF
:104EC0000848C06900F00100A8B10548C06940F079
:104ED00004000349C86100BF0248C06906E0000041
:104EE000B80B00200020024000F8FF1F20F0010056
:104EF0000449C86100BF00BF14200249C86000BF58
:104F000070470000002002402DE9F84703460024C6
:104F1000002000258446002700226EE14FF00108A2
:104F200008FA02F4D1F8008008EA0400A0427DD11A
:104F3000DFF8ECA2D1F80480A8EB0A09D0453AD0FA
:104F400014DCB8F1030F50D009DCB8F1000F31D0F8
:104F5000B8F1010F1CD0B8F1020F49D120E0B8F12F
:104F6000110F18D0B8F1120F42D11EE0B9F5881F09
:104F700025D006DCB9F5803F20D0B9F5801F37D1A8
:104F80001AE0B9F5001F18D0B9F5041F30D117E0A9
:104F9000D1F80CC02DE0D1F80C8008F1040C28E009
:104FA000D1F80C8008F1080C23E0D1F80C8008F14E
:104FB0000C0C1EE000BF00BF00BF00BF00BF00BF61
:104FC000D1F80880B8F1000F02D14FF0040C0BE0CB
:104FD000D1F80880B8F1010F03D14FF0080C1C6123
:104FE00002E04FF0080C5C6103E04FF0000C00E0C1
:104FF00000BF00BFFF2801D8984601E003F1040874
:105000004646FF2802D84FEA820803E0A2F10808CA
:105010004FEA88084746D6F800804FF00F0909FA92
:1050200007F928EA09080CFA07F900E088E048EADD
:105030000908C6F80080D1F8048008F08058B8F15B
:10504000805F7DD100BFDFF8DC81D8F8188048F0A0
:105050000108DFF8D091C9F81880C846D8F8188040
:1050600008F00108CDF8008000BF00BF4FEAB93852
:105070004FEA920958F829504FEA82784FEA187996
:105080004FF00F0808FA09F825EA0805DFF89881BB
:10509000434502D14FF0000816E0DFF89081434508
:1050A00002D14FF001080FE0DFF88481434502D1BF
:1050B0004FF0020808E0DFF87C81434502D14FF051
:1050C000030801E04FF004084FEA82794FEA1979AA
:1050D00008FA09F848EA0505DFF85C814FEA920909
:1050E00048F82950D1F8048008F48038B8F5803F9A
:1050F0000AD1DFF84881D8F8008048EA0008DFF8D4
:105100003C91C9F8008009E0DFF83081D8F80080D0
:1051100028EA0008DFF82491C9F80080D1F804805B
:1051200008F40038B8F5003F10D1DFF8108108F11D
:105130000408D8F8008048EA0008DFF8009100E091
:105140005AE009F10409C9F800800DE0DFF8EC80AD
:1051500008F10408D8F8008028EA0008DFF8DC909D
:1051600009F10409C9F80080D1F8048008F4801816
:10517000B8F5801F0ED1DFF8C48008F10808D8F810
:10518000008048EA0008DFF8B49009F10809C9F87E
:1051900000800DE0DFF8A48008F10808D8F800804E
:1051A00028EA0008DFF8949009F10809C9F800809E
:1051B000D1F8048008F40018B8F5001F0ED1DFF80C
:1051C0007C8008F10C08D8F8008048EA0008DFF875
:1051D0006C9009F10C09C9F800800DE0DFF85C80E3
:1051E00008F10C08D8F8008028EA0008DFF84C9095
:1051F00009F10C09C9F80080521C102AFFF48EAE88
:10520000BDE8F887024693680B400BB1012000E02F
:10521000002070470AB1016101E00B04036170478F
:10522000000011100010024000080140000C014075
:10523000001001400014014008000140000401403A
:105240007047704730B585B00446002514B9012079
:1052500005B030BD94F8E90328B9002084F8E803CC
:10526000204604F0E3F8032084F8E903206802F004
:10527000C9FE142204F11001684604F035FD94E8DB
:105280000F0002F0B0FE0021206802F0C6FE0025EB
:1052900025E0012104F1280000EB4510417004F1E4
:1052A000280000EB4510057004F1280000EB4510C4
:1052B0008581002104F1280000EB4510C17004F144
:1052C000280000EB4510016104F1280000EB4510B7
:1052D000416104F1280000EB451081616D1C0F2D28
:1052E000D7D3002524E0002104F5027000EB45101F
:1052F000417004F5027000EB4510057004F12800C0
:1053000000EB4510858104F5027000EB4510C1707B
:1053100004F5027000EB4510016104F5027000EB2A
:105320004510416104F5027000EB451081616D1C70
:105330000F2DD8D3142204F11001684604F0D4FCD8
:1053400094E80F0002F06CFE002084F82400012095
:1053500084F8E903206803F03FFB002078E710B5EC
:10536000044600BF94F8E803012801D1022010BDD3
:10537000012084F8E80300BF0121204604F0A8F9C9
:10538000206803F026FB206802F031FE00BF0020F9
:1053900084F8E80300BF00BFE9E770477047704733
:1053A00070B504460D4600BF94F8E803012801D10A
:1053B000022070BD012084F8E80300BF84F8245067
:1053C0002946206803F0FEFA00BF002084F8E803B5
:1053D00000BF00BFEDE770472DE9F04104460E46DF
:1053E00017469846002506F07F0104F1280000EBDF
:1053F00041156F61C5F818800020E86101206870D0
:1054000006F07F00287000BF94F8E803012802D15D
:105410000220BDE8F081012084F8E80300BF06F017
:105420007F0020B92946206803F005F903E02946EA
:10543000206803F000F900BF002084F8E80300BFF3
:1054400000BFE6E770472DE9F04104460E461746D7
:105450009846002506F07F0104F5027000EB411527
:105460006F61C5F818800020E861687006F07F0061
:10547000287000BF94F8E803012802D10220BDE89B
:10548000F081012084F8E80300BF06F07F0020B916
:105490002946206803F0CFF803E02946206803F08E
:1054A000CAF800BF002084F8E80300BF00BFE6E7A9
:1054B000704770472DE9FC4105460024002700266F
:1054C0000020019000900CE2BDF8040000F00F06EF
:1054D000002E7DD1BDF8040000F0100088BB2868C4
:1054E000008848F60F7108402968088005F12804F3
:1054F0002868B0F85010207801EBC000801C2968A3
:1055000001F5806131F81000C0F30900E061E16944
:105510006069084460610021284603F0EAFF95F8BD
:1055200024000028CFDDA0690028CCD195F8240004
:1055300040F080002968A1F84C00002085F8240084
:10554000CFE1FFE705F50274286800880090BDF8F8
:10555000000000F4006018B32868B0F850102078FC
:1055600001EBC000801D296801F5806131F8100051
:10557000C0F30900E061A18B8BB2A28805F57B71B5
:10558000286803F034FA28680088C0F30E0048F653
:105590008F71084029680880284603F093FFA0E136
:1055A000BDF8000000F4004000288CD02868008876
:1055B000C0F30E0048F68F710840296808802868FB
:1055C000B0F85010207801EBC000801D296800E081
:1055D00055E001F5806131F81000C0F30900E06189
:1055E000E06960B1B4F81CC01FFA8CF3A28861694D
:1055F000286803F0FCF9E1696069084460610021F2
:10560000284603F068FF2A6802F580622868B0F82F
:105610005000801D02EB400122693E2A10D9226908
:10562000C2F34F10227C02F01F020AB9421E90B250
:105630004FF6FF7202EA802242F400420A600DE057
:105640002269C2F34F00227C02F001020AB1421C1F
:1056500090B24FF6FF7202EA80220A602968098838
:105660004BF68F7201EA020080F4805080F4005003
:1056700040F4004141F080012A68118031E171005D
:10568000286830F811000090BDF8000000F40040D8
:1056900000287CD07100286830F81100C0F30E009B
:1056A00048F68F7108407200296821F8120005F54C
:1056B000027000EB4614A07AA8B92868B0F8501020
:1056C000207801EBC000801D296801F5806131F868
:1056D0001000C0F30907EFB3A28861693B46286850
:1056E00003F085F944E021784900286830F811007A
:1056F00000F48040A8B12868B0F85010207801EB81
:10570000C000801C296801F5806131F81000C0F3E9
:105710000907DFB1E28861693B46286803F067F951
:1057200014E02868B0F85010207801EBC000801D0C
:10573000296801F5806131F81000C0F309072FB125
:10574000228961693B46286803F051F921784900B4
:10575000286800E00CE030F8110048F68F7108402E
:1057600048F2C001084322785200296821F812004B
:10577000E0693844E061606938446061A06910B153
:105780002069B84204D92178284603F0A4FE05E038
:1057900021782846D4E90523FFF755FEBDF800001F
:1057A00000F0800000287ED005F1280000EB4614B0
:1057B0007100286830F8110048F60F710840720037
:1057C000296821F81200A07AD0B92868B0F85010E2
:1057D000207801EBC000801C296801F5806131F858
:1057E0001000C0F30900E061E069F0B3B4F81CC038
:1057F0001FFA8CF3A2886169286802F0FBFE4EE074
:1058000021784900286830F8110000F04000D0B13C
:105810002868B0F85010207801EBC000801C29687F
:1058200001F5806131F81000C0F30900E061E06922
:1058300028B3B4F81CC01FFA8CF3E28861692868A9
:1058400002F0D8FE1BE02868B0F85010207801EB79
:10585000C000801D296801F5806131F81000C0F397
:105860000900E061E06950B100E018E0B4F81CC044
:105870001FFA8CF322896169286802F0BBFE217847
:105880004900286830F8110048F68F7108404CF242
:105890008001084322785200296821F81200286804
:1058A000B0F8501000E01CE0207801EBC000801C34
:1058B000296801F5806131F81000C0F30900E0614A
:1058C000E169606908446061A06920B921782846CF
:1058D00003F00FFE05E021782846D4E90523FFF701
:1058E0007BFD2868B0F84400019000F400400028D7
:1058F0007FF4EAADBDE8FC8170B504460025206860
:1059000003F06DF800F40040B0F5004F02D12046DE
:10591000FFF7D0FD206803F062F800F48060B0F576
:10592000806F0ED12068B0F8440020F480602168B8
:10593000A1F84400204603F0F1FD00212046FFF7C6
:105940002FFD206803F04BF800F48040B0F5804F45
:1059500007D12068B0F8440020F480402168A1F805
:105960004400206803F03BF800F40050B0F5005FFD
:1059700007D12068B0F8440020F400502168A1F855
:105980004400206803F02BF800F48050B0F5805FED
:1059900017D12068B0F8400020F004002168A1F879
:1059A00040004FF43D452068A0F84050204603F0E9
:1059B000C8FD2068B0F8440020F480502168A1F8A8
:1059C0004400206803F00BF800F40060B0F5006FAD
:1059D00020D12068B0F8440020F400602168A1F8CC
:1059E00044002068B0F8400040F008002168A1F8A9
:1059F00040002068B0F8400040F004002168A1F8A1
:105A00004000206802F0EBFFC0F3003010B92046E0
:105A100003F090FD206802F0E2FF00F40070B0F5A2
:105A2000007F0AD12068B0F8440020F4007021689B
:105A3000A1F84400204603F06AFD206802F0CFFF81
:105A400000F48070B0F5807F07D12068B0F8440082
:105A500020F480702168A1F8440070BD2DE9F04762
:105A600004460D46174698464FF00009002605F0FB
:105A70008000802806D105F07F0104F1280000EBAA
:105A8000411605E005F07F0104F5027000EB4116B8
:105A900005F07F00307005F08000C009707037613C
:105AA00086F8038000BF94F8E803012802D10220A1
:105AB000BDE8F087012084F8E80300BF3146206884
:105AC00002F0B9FA00BF002084F8E80300BF48469E
:105AD000EEE770B504460D46002605F080008028EC
